:100000000C9439010C9461010C9461010C94610110
:100010000C9461010C9461010C9461010C946101D8
:100020000C9461010C9461010C947D170C94EC17F5
:100030000C9461010C9461010C9461010C946101B8
:100040000C9461010C9461010C9461010C946101A8
:100050000C9461010C9461010C9461010C941E1AC2
:100060000C9461010C9461010C9461010C94610188
:100070000C9461010C9461010C9461010C94610178
:100080000C9461010C9461010C9461010C94610168
:100090000C9461010C9461010C9461010C94610158
:1000A0000C9461010C9461010C94610121402324A2
:1000B000255E262A28295F2B7B7D7C7E3A227E3C8A
:1000C0003E3F2D3D5B5D5C203B27602C2E2F2F2A71
:1000D0002D2B0D00000000000000002A2B2800003E
:1000E0000000000000000000000000000000000010
:1000F0000000002C9EB4A0A1A2A434A6A7A5AE36F1
:100100002D3738271E1F20212223242526B333B65E
:100110002EB7B89F8485868788898A8B8C8D8E8F31
:10012000909192939495969798999A9B9C9D2F3134
:1001300030A3AD350405060708090A0B0C0D0E0F98
:10014000101112131415161718191A1B1C1DAFB114
:10015000B0B500080B000202020000090400000113
:1001600002020000052400100105240101010424FD
:10017000020605240600010705810310004009045A
:100180000100020A00000007050202400000070506
:1001900083024000000403090412010002EF02017F
:1001A00040412336800001010203014172647569F8
:1001B0006E6F204C4C430041726475696E6F204C29
:1001C000656F6E6172646F000000000200090F002D
:1001D00000030401000C000000000000000000000B
:1001E0000000000000000000000000250028002B97
:1001F000002E00310000000000240027002A002DFE
:100200000030000404040404030405020202020492
:1002100003020202020606060606060404020202A1
:1002200004040408020110408040102040804080F7
:10023000080204018040201002011080102040407C
:100240002005010906A1018502050719E029E71526
:1002500000250175019508810295017508810395B6
:10026000067508150025730507190029738100C05C
:100270009B1A11241FBECFEFDAE0DEBFCDBF22E014
:10028000AEE8B1E001C01D92A73FB207E1F711E06F
:10029000A0E0B1E0E2E2FEE302C005900D92AE38CC
:1002A000B107D9F711E0C9E3D1E004C02197FE01FD
:1002B0000E94021FC833D107C9F70E94B51B0C94D6
:1002C0000F1F0C9400008CBD9DBD0895CF93DF934C
:1002D000FC01818190912B02482F490F5527551F12
:1002E000483051059CF5A281B381109709F527E2AA
:1002F00032E03383228320812093290280932A02D3
:1003000080912C02820F808320912D02A22FB09128
:100310002E028A2F821B8917E8F481813D91C82F14
:10032000D0E0C45FDE4F38838F5F8183F2CFD90185
:1003300018962D913C91199721153105C1F727E2A7
:1003400032E019963C932E931897D5CF80E0DF9139
:10035000CF91089581E0FBCF90E0FC01EE5DFD4F71
:1003600024918D5F9D4FFC018491882399F090E04A
:10037000880F991FFC01EB50FE4FA591B491FC0131
:10038000E951FE4F859194918FB7F894EC91E22B4F
:10039000EC938FBF0895FC018091D501882311F162
:1003A0003FB7F89482E08093E9002091F200822F19
:1003B00090E01816190614F481E090E0882339F0D3
:1003C000289844E64093D4014091F10040832223D1
:1003D00039F02091F200211103C02BE62093E800B0
:1003E0003FBF08958FEF9FEF08954091C70150914F
:1003F000C8012091C5013091C60142175307B4F4DA
:100400009091E8009570E1F39091E80092FD19C099
:100410008093F1008091C7019091C80101968F737C
:100420009927892B19F48EEF8093E8008091C701FA
:100430009091C80101969093C8018093C70181E013
:10044000089580E00895DF92EF92FF920F931F933B
:10045000CF93DF93D82E8A01EB017B01E40EF51ECA
:10046000CE15DF0559F0D7FE12C0FE0184910E941F
:10047000F50121968111F4CF0FEF1FEFC801DF9135
:10048000CF911F910F91FF90EF90DF900895888199
:10049000EECF2FB7F89487708093E9009091E80031
:1004A000892F807295FF04C09091F20080E4891B2F
:1004B0002FBF0895615030F02091F100FC0120839E
:1004C0000196F8CF289884E68093D401089580910E
:1004D000BD0181110DC082E08093B90184E0809359
:1004E000BA011092BC011092BB0181E08093BD0162
:1004F00089EB91E008950F931F93CF93DF931F92A1
:10050000CDB7DEB782E0898342E450E063E571E075
:1005100080E80E9423020E946702DC0112960D917E
:100520001C910115110589F0D801ED91FC91028013
:10053000F381E02DBE016F5F7F4FC801099597FDE4
:1005400004C0F80100851185ECCF89810F90DF91FF
:10055000CF911F910F910895CF93DF931F92CDB745
:10056000DEB76983DC01ED91FC910280F381E02D1F
:1005700041E050E0BE016F5F7F4F09950F90DF9122
:10058000CF91089583E08093E9008091F200882361
:1005900019F08AE38093E800089583E00E944902FD
:1005A00090E00895CF93DF931F92CDB7DEB7FC01A3
:1005B0008485958597FD08C02FEF3FEF3587248709
:1005C0000F90DF91CF910895CE0101960E94CB014B
:1005D000019719F4898190E0F3CF8FEF9FEFF0CF6F
:1005E0000F931F93CF93DF931F92CDB7DEB78C018C
:1005F000FC018485958597FF0BC0CE0101960E9472
:10060000CB01019771F4898190E0F8019587848787
:10061000F801848595850F90DF91CF911F910F91FF
:1006200008958FEF9FEFF1CFFC018485958597FDAD
:100630000BC09FB7F89482E08093E9008091F200AC
:100640009FBF90E0019608959FB7F89482E0809351
:10065000E9008091F2009FBF90E008953FB7F894C1
:100660008091B5019091B601A091B701B091B80108
:1006700026B5A89B05C02F3F19F00196A11DB11DFD
:100680003FBFBA2FA92F982F8827BC01CD01620F39
:10069000711D811D911D42E0660F771F881F991FF4
:1006A0004A95D1F708958F929F92AF92BF92CF92C1
:1006B000DF92EF92FF924B015C010E942E036B01CF
:1006C0007C010E942E036C197D098E099F09683EEA
:1006D000734081059105A8F321E0821A9108A108D1
:1006E000B10888EEC80E83E0D81EE11CF11C81140D
:1006F0009104A104B10429F7FF90EF90DF90CF900F
:10070000BF90AF909F908F9008957F928F929F920D
:10071000AF92BF92CF92DF92EF92FF920F931F930F
:10072000CF93DF93C82E8B017A018091D50181117F
:1007300010C08FEF9FEFDF91CF911F910F91FF902E
:10074000EF90DF90CF90BF90AF909F908F907F9071
:1007500008958091CB0180FF05C08091E000826008
:100760008093E000CE2DDF2DD12C8AEFB82E8C2D7A
:100770008770982E8C2D8072882E8C2D8074782E08
:100780009AE3A92E209719F4DD2009F452C08C2D8C
:100790000E94490281110AC0BA94BB2051F261E063
:1007A00070E080E090E00E945303ECCF8C171D06B0
:1007B00011F00CF08C2F9FB7F8949092E9002091E3
:1007C000E80025FD02C09FBFDDCF282F30E0C21B0F
:1007D000D30B882029F08150A0F01092F100FBCFBC
:1007E000F801C7FC0AC0815050F041914093F100DC
:1007F000FACF44914093F10031968150D0F7020F27
:10080000131FDD2021F0A092E800D12CDCCF8091D5
:10081000E80085FD07C0A092E800DD24D39420976E
:1008200091F2F3CF209779F6772069F2A092E80051
:10083000CACF5D9884E68093CA01C7017CCFEF924E
:10084000FF921F93CF93DF931F92CDB7DEB77C014A
:100850008091380281112AC011E010932B0210936D
:100860002C0281E392E090932E0280932D0210924D
:10087000300210922F0285E391E09093280280933A
:100880002702109233021092320210923502109217
:100890003402109336021093370281EC80933102B8
:1008A0000E9467020E9466011093380282E08983E9
:1008B00041E050E0BE016F5F7F4F80912A020E94AD
:1008C000850397FD08C080912A0248E050E0B701F7
:1008D00080640E9485030F90DF91CF911F91FF905C
:1008E000EF900895CF93DF93EC0180910B01882363
:1008F00031F083E00E9485031816190634F081E078
:1009000090E09B838A8380E090E0DF91CF9108950F
:100910002FB7F8946091B1017091B2018091B30149
:100920009091B4012FBF08950F931F93CF93DF933E
:10093000FC018B01EA0180819181892B31F1928147
:10094000992349F128813981232BF9F0D8012D9180
:100950003C91D9014C918381682F691B770B808171
:100960009181860F971FDC014C9382818150828395
:1009700088819981019799838883D8018D919C9171
:10098000119701968D939C93DACF80E0DF91CF9100
:100990001F910F9108958381828381E0F7CF2F9279
:1009A0003F924F925F926F927F928F929F92AF92FF
:1009B000BF92CF92DF92EF92FF920F931F93CF934C
:1009C000DF9300D000D01F92CDB7DEB7D8011296CA
:1009D0002C911297213009F484C02B019D838C83C4
:1009E000FC0162814C91641739F00190F081E02D97
:1009F0000480F581E02D09953801B2E06B0E711C81
:100A00008C809D80E4E08E0E911C6801C8010896E0
:100A10009B838A83540173012C803D809AE0290EC8
:100A2000311CD7014D917D01F50191915F01D301F9
:100A3000F401198280E02191421303C0413009F092
:100A400081E02D91291304C0913011F021E0298318
:100A5000E215F30581F781111AC0AC81BD81ED91DA
:100A6000FC9111970280F381E02DB201CD0109952F
:100A7000AC81BD81ED91FC910680F781E02DD7011D
:100A800011974C91D8016C918C819D810995B98108
:100A9000B11111C0AC81BD81ED91FC910084F18553
:100AA000E02DD50111974C91AC81BD8112966C91CE
:100AB0001297CD010995EA81FB81EE16FF0609F038
:100AC000B0CF8C819D8102969B838A83D6018D91C4
:100AD0006D01EA81FB818193FB83EA83AE15BF053B
:100AE000A9F70F900F900F900F900F90DF91CF917B
:100AF0001F910F91FF90EF90DF90CF90BF90AF903C
:100B00009F908F907F906F905F904F903F902F902D
:100B10000895DF92EF92FF920F931F93CF93DF938D
:100B2000EC0185E0E62EF12CFE01869FE00DF11D23
:100B30001124908596FF24C0192F177001E085E0DD
:100B4000D82E8FEF800F8F3008F001E0602F70E01B
:100B5000062FD69EF001D79EF00D1124EC0FFD1F3D
:100B600080858695869586958770181701F16F5F49
:100B70007F4F603168F38D81811302C011501D8356
:100B800085E08E9DF0018F9DF00D1124EC0FFD1F6F
:100B9000108681E0818712862296D783C683DF91F3
:100BA000CF911F910F91FF90EF90DF900895CE01AC
:100BB0000E948905C6CFFC0120812EBD9B012150DA
:100BC000310941F051810DB407FEFDCF4EB55EBD38
:100BD0004193F5CF61507109860F971F0DB407FE41
:100BE000FDCF2EB5FC0120830895FC0121E0613486
:100BF00099F49C01255B3F4F61E0AC014E5F5F4F74
:100C00001586668717865487438735962E173F07C4
:100C1000B9F7FC01158208953585631729F02F5F18
:100C200035962031C9F70895622F0C948905CF932A
:100C3000DF93FC0167FD12C0283080F4442319F0D3
:100C40008581873059F0EF01A1E0B0E08D858823E0
:100C500049F111962596A031B105C1F780E018C081
:100C600085E08A9FE0018B9FD00D1124CE0FDF1FFE
:100C7000442389F081E4888785818F5F858325E01F
:100C80002A9FC0012B9F900D1124E80FF91F80852A
:100C9000DF91CF91089581E08887F1CF2770687B3D
:100CA000622B0FC06623E1F26770660F660F660F56
:100CB0004423A1F3606485818F5F85838770687F9B
:100CC000682B25E02A9FC0012B9F900D1124E80F6F
:100CD000F91F6087862FDCCFFC0121E0611102C083
:100CE000069608953585631739F02F5F35962031C4
:100CF000C9F790E080E00895069635E0239F800DC7
:100D0000911D11240895DC01FB0112962C9112977C
:100D1000848195812817190641F491818081813A57
:100D200031F49D7F81E0913009F080E008958132B7
:100D3000E1F79B3029F482811F968C9381E008951E
:100D40009A3099F7828150968C93F8CFDC01FB01A1
:100D500088E4808389E4818384E482831D969C9166
:100D60001D979F709F5B93831D968D919C9124E0AE
:100D7000969587952A95E1F78F708F5B848385E040
:100D80000895EF92FF920F931F93CF93DF93FB0190
:100D90002081213871F52381223259F5DC01129628
:100DA0004C91248135814217130619F5EC010B850E
:100DB0001C85F12CE12C0115110589F0F801448105
:100DC00055816281738180E80E9423028F3F9807DA
:100DD00049F0E80EF91ED8010D911C91ECCF81E08D
:100DE0008F87C701DF91CF911F910F91FF90EF90F7
:100DF000089590E080E0F6CFCF93DF93CDB7DEB7D4
:100E000069970FB6F894DEBF0FBECDBFFC01DB01C2
:100E10008C918F5F8C939E012D5F3F4F8DE0D901A8
:100E20001D928A95E9F729E0298384E08A8391E07D
:100E30009D8383E08E832A8721E22B879C879D8771
:100E40009F8722E2288B27E02B8B25E02C8B8E8B33
:100E500020E430E0388F2F8B998F82818B839585AA
:100E60008685998B8A8B838180688D8B49E150E0E0
:100E7000BE016F5F7F4F80E00E94230269960FB62C
:100E8000F894DEBF0FBECDBFDF91CF910895CF9212
:100E9000DF92EF92FF920F931F93CF93DF936C013A
:100EA000EB017B01E40EF51E10E000E0CE15DF053E
:100EB00081F069916D30D1F3D601ED91FC910190F3
:100EC000F081E02DC6010995892B19F00F5F1F4FA6
:100ED000EDCFC801DF91CF911F910F91FF90EF905F
:100EE000DF90CF900895DC016838A0F06858FD01CC
:100EF00086E0662321F09681961301C01682815008
:100F000031968111F6CFCD0104960E941F0481E035
:100F100090E00895E62FF0E067FF12C0E058F10975
:100F200081E090E001C0880FEA95EAF78095149679
:100F30009C911497892314968C93149760E0D7CFD3
:100F4000ED52FF4F6491662359F067FFD0CF14969E
:100F50008C9114978D7F14968C9314976F77C7CFCD
:100F600090E080E00895DC01683888F168581696B2
:100F70008C911697861721F117968C9117978617E3
:100F8000F9F018968C9118978617D1F019968C91D4
:100F900019978617A9F01A968C911A97861781F0DF
:100FA0001B968C911B97861759F0FD01369690E0A1
:100FB00080E02191211139C08A0F9B1FFC016683BB
:100FC000CD0104960E941F0481E090E00895E62F71
:100FD000F0E067FF11C0E058F10921E030E001C006
:100FE000220FEA95EAF714968C911497822B1496A7
:100FF0008C93149760E0BBCFED52FF4F6491611169
:1010000009C081E090E013969C938E93129790E034
:1010100080E0089567FFABCF14968C91149782609F
:1010200014968C9314976F77A2CF01968630910512
:1010300009F0BFCFE6CFEF92FF921F93CF93DF93DC
:10104000EC01162F0E94B3077C01612FCE010E9494
:101050007307C7019927DF91CF911F91FF90EF9000
:101060000895089590E080E008953F924F925F9236
:101070006F927F928F929F92AF92BF92CF92DF92A8
:10108000EF92FF920F931F93CF93DF9300D000D086
:10109000CDB7DEB76C017A8369835C834B8384E0D0
:1010A000482E360182E1680E711C93E0392E5601FC
:1010B000A7E0AA0EB11C12E0552453944601B0E1FA
:1010C0008B0E911C29813A812115310509F4CDC07F
:1010D000F60180A18230F1F0A8F5882309F457C009
:1010E000813091F7AE014F5F5F4FBE016D5F7F4F63
:1010F000C5010E949404882309F4B7C0D60115964F
:10110000ED91FC911697808191968C9391978181B6
:1011100092968C93F6017682658230A2D6019296E1
:101120008C919297843011F493961C92F60181A1D0
:101130008250848325813681308727838287818707
:1011400040A205C0833051F3843009F0BDCFD601F1
:1011500092968C919297843019F1853009F44BC0A6
:10116000823009F075C0AE014F5F5F4FBE016D5F09
:101170007F4FC5010E949404882309F476C0F601CC
:10118000858984A3F6019682858210A29BCF148361
:1011900085819681908787831287118750A2A2CF7D
:1011A000AE014F5F5F4FBE016D5F7F4FC5010E9473
:1011B0009404882309F459C0D60155968C9155970B
:1011C000833001F756968C9156978130D9F69896D0
:1011D0009C91989757968C91992351F0882391F27E
:1011E000F60153A2928996A3938997A385A3CACFA8
:1011F000813041F6F5CFAE014F5F5F4FBE016D5FAD
:101200007F4FC5010E949404882379F1D6019396FB
:101210008C919397882309F4B5CF12968D919C9168
:10122000009709F4AFCFDC01ED91FC910190F081C2
:10123000E02D7401D60195960C91959797962C9177
:10124000979796964C91969794966C9109959ACF0C
:10125000F60185858823F9F0813041F1D6011E968B
:101260008D919C91892B09F48DCF0F900F900F9049
:101270000F90DF91CF911F910F91FF90EF90DF9032
:10128000CF90BF90AF909F908F907F906F905F9026
:101290004F903F90089591968C9191978250990B21
:1012A0001F969C938E931E971D965C9229813A817E
:1012B0008B819C81782F692FF601468557854115D2
:1012C000510581F001962115310539F04150510940
:1012D0005787468721503109EDCF1A8219827B83C7
:1012E0006C83BCCF3A8329839C838B831586B6CFCE
:1012F0000895EF92FF92CF93DF93FC01E70182897B
:10130000823021F16787408B9B8193709330F1F499
:101310009A8197FF1BC02E81308D321708F4208FE1
:10132000282F30E0D901AA0FBB1FA20FB31FAE0FA9
:10133000BF1F9F7017969C9317979C8118969C933C
:10134000189794E019969C938F5F828BDF91CF91D1
:10135000FF90EF900895EF92FF920F9302970E94F3
:1013600079090F91FF90EF900895FC018789089506
:1013700070E0660F771F860F971FFC0185859685A5
:10138000089581E0613009F080E0089581E06330E4
:1013900009F080E00895FC0186810895CF93DF93E2
:1013A000EC018C819D81DC01ED91FC910480F58143
:1013B000E02D6E8109951F86188A81E08A8B1E8236
:1013C0001B8A1C8A1D8A1E8A1F8A80E0DF91CF91AA
:1013D00008952E9808952E9A089570E0660F771F4D
:1013E000860F971FFC015687458781E00895CF93AC
:1013F000C42F0E948804C450C73128F5EC2FF0E0B8
:10140000EC5FF54F0C94021F5B0A230A230A490A7A
:10141000250A400A230A230A230A230A230A230A45
:10142000230A230A230A230A370A1B0A520A230A19
:10143000230A230A2E0A6093AB017093AC018093B8
:10144000AD019093AE01CF9108956093A701709381
:10145000A8018093A9019093AA01F5CF6093A301FD
:101460007093A4018093A5019093A601ECCF6093A3
:101470009F017093A0018093A1019093A201E3CFFB
:1014800060939B0170939C0180939D0190939E01BA
:10149000DACF6093970170939801809399019093AC
:1014A0009A01D1CF60939301709394018093950139
:1014B00090939601C8CF60938F01709390018093B1
:1014C000910190939201BFCF109254021092550255
:1014D000109256021092570210925802109259021E
:1014E0001092520282E592E00E941F048091CF0187
:1014F000882329F061E88EE492E00C94B307089504
:10150000CF93C82F80E88C0F843080F480918E01B7
:101510008C1303C00E94640A05C06C2F8EE492E015
:101520000E94B307C0938E01CF9108956C2F8EE473
:1015300092E00E941B08EECFCF92DF92EF92FF92D3
:101540000F931F93CF93C42F0E9488041092AF0172
:101550000091AB011091AC012091AD013091AE0131
:101560006B017C01C01AD10AE20AF30A97018601D5
:10157000093111052105310558F420E12093AF010F
:101580001092AB011092AC011092AD011092AE011D
:101590000091A7011091A8012091A9013091AA0101
:1015A0006B017C01C01AD10AE20AF30A9701860195
:1015B000093111052105310568F42091AF01206240
:1015C0002093AF011092A7011092A8011092A901D7
:1015D0001092AA010091A3011091A4012091A501EC
:1015E0003091A6016B017C01C01AD10AE20AF30A0C
:1015F00097018601093111052105310568F4209113
:10160000AF0120642093AF011092A3011092A401B6
:101610001092A5011092A60100919F011091A001C6
:101620002091A1013091A2016B017C01C01AD10A65
:10163000E20AF30A970186010931110521053105F6
:1016400068F42091AF0120682093AF0110929F01B0
:101650001092A0011092A1011092A20100919B0191
:1016600010919C0120919D0130919E016B017C01A4
:10167000C01AD10AE20AF30A97018601093111055D
:101680002105310568F42091AF0121602093AF015D
:1016900010929B0110929C0110929D0110929E014C
:1016A00000919701109198012091990130919A0130
:1016B0006B017C01C01AD10AE20AF30A9701860184
:1016C000093111052105310568F42091AF0122602F
:1016D0002093AF01109297011092980110929901F6
:1016E00010929A010091930110919401209195011B
:1016F000309196016B017C01C01AD10AE20AF30A0B
:1017000097018601093111052105310568F4209101
:10171000AF0124602093AF011092930110929401C5
:10172000109295011092960100918F0110919001F5
:1017300020919101309192016B017C01C01AD10A74
:10174000E20AF30A970186010931110521053105E5
:1017500068F42091AF0128602093AF0110928F01AF
:10176000109290011092910110929201C450C731D1
:1017700028F5EC2FF0E0E154F44F0C94021F230CF9
:10178000DE0BDE0B110CED0B080CDE0BDE0BDE0BA3
:10179000DE0BDE0BDE0BDE0BDE0BDE0BDE0BFF0BE0
:1017A000D60B1A0CDE0BDE0BDE0BF60B1092AB0128
:1017B0001092AC011092AD011092AE012091AF01D8
:1017C000203F09F049C08AE7CF911F910F91FF9008
:1017D000EF90DF90CF900C94800A1092A7011092A6
:1017E000A8011092A9011092AA01E8CF1092A301BA
:1017F0001092A4011092A5011092A601DFCF1092C1
:101800009F011092A0011092A1011092A201D6CFC7
:1018100010929B0110929C0110929D0110929E01CA
:10182000CDCF1092970110929801109299011092C9
:101830009A01C4CF109293011092940110929501D5
:1018400010929601BBCF10928F01109290011092CE
:10185000910110929201B2CF213E11F481E8B4CFF0
:10186000283711F483EBB0CF2E3111F481ECACCFDB
:101870002F3011F480E2A8CF203E11F488E7A4CFE6
:10188000203D11F481E7A0CF203711F484E69CCFEE
:10189000283311F481EB98CF253271F48091CE0179
:1018A00091E089278093CE01CF911F910F91FF90F6
:1018B000EF90DF90CF900895263111F487E284CF26
:1018C0002E3011F48DE680CF2D3011F480E77CCFDF
:1018D000273011F48CE678CF203C11F48AE674CFDF
:1018E000203A11F486E770CF203911F487E76CCFE6
:1018F000243811F482E868CF223811F483E864CFE9
:10190000213811F480E860CF2036D1F400919F0196
:101910001091A0012091A1013091A20101151105A2
:101920002105310559F0601B710B820B930B6A3155
:1019300071058105910510F088E346CF87E644CF15
:10194000243411F481E240CF2033D1F400919F017F
:101950001091A0012091A1013091A2010115110562
:101960002105310559F0601B710B820B930B6A3115
:1019700071058105910510F087E326CF86E624CF17
:10198000243211F484ED20CF2232A1F48091CF01D2
:1019900091E089278093CF01811160CF61E88EE4C7
:1019A00092E0CF911F910F91FF90EF90DF90CF9039
:1019B0000C947307213211F482EB06CF283111F415
:1019C0008FE202CF243111F48CE2FECE223111F4E9
:1019D0008EE2FACE213111F480EBF6CE2C3011F4E8
:1019E0008EE6F2CE2A3011F48BE6EECE293011F4D9
:1019F00082E6EACE2630D1F400919F011091A00139
:101A00002091A1013091A201011511052105310597
:101A100059F0601B710B820B930B6A3171058105C4
:101A2000910510F080E3D0CE85E7CECE253011F4BD
:101A300088E6CACE2330D1F400919F011091A00115
:101A40002091A1013091A201011511052105310557
:101A500059F0601B710B820B930B6A317105810584
:101A6000910510F089E3B0CE83E6AECE2038E1F5E3
:101A70002091CE01222311F083EDA6CE00919B018F
:101A800010919C0120919D0130919E01011511053D
:101A90002105310579F06B017C01C01AD10AE20AF7
:101AA000F30A970186010A3111052105310510F06D
:101AB00080E68ACE0091AB011091AC012091AD017E
:101AC0003091AE01011511052105310559F0601B5A
:101AD000710B820B930B6A3171058105910510F032
:101AE0008BE772CE83E770CE203409F058C0209186
:101AF000CE01222311F082ED67CE00919F0110915B
:101B0000A0012091A1013091A2010115110521052B
:101B1000310579F06B017C01C01AD10AE20AF30A9F
:101B2000970186010A3111052105310510F083E383
:101B30004BCE00919B0110919C0120919D01309111
:101B40009E01011511052105310579F06B017C011C
:101B5000C01AD10AE20AF30A970186010A31110577
:101B60002105310510F08BE32FCE0091AB011091D0
:101B7000AC012091AD013091AE0101151105210597
:101B8000310559F0601B710B820B930B6A317105A3
:101B90008105910510F088E217CE84E715CE20323A
:101BA00009F058C02091CE01222311F08AED0CCE0D
:101BB00000919F011091A0012091A1013091A201FB
:101BC000011511052105310579F06B017C01C01A61
:101BD000D10AE20AF30A970186010A3111052105AB
:101BE000310510F082E3F0CD00919B0110919C0132
:101BF00020919D0130919E010115110521053105AE
:101C000079F06B017C01C01AD10AE20AF30A97014C
:101C100086010A3111052105310510F08CE5D4CD7E
:101C20000091AB011091AC012091AD013091AE015A
:101C3000011511052105310559F0601B710B820B4F
:101C4000930B6A3171058105910510F089E2BCCDD5
:101C500082E7BACD2031D9F52091CE01222311F0AF
:101C600085EDB2CD00919F011091A0012091A101BD
:101C70003091A201011511052105310579F06B01A3
:101C80007C01C01AD10AE20AF30A970186010A31DF
:101C900011052105310510F081E396CD00919B01DE
:101CA00010919C0120919D0130919E01011511051B
:101CB0002105310551F0601B710B820B930B6A31CA
:101CC00071058105910508F03DCE81E67DCD283076
:101CD000E1F52091CE01222311F086ED75CD009122
:101CE0009B0110919C0120919D0130919E01011555
:101CF00011052105310579F06B017C01C01AD10A6B
:101D0000E20AF30A970186010A311105210531051E
:101D100010F08DE359CD0091AB011091AC012091F1
:101D2000AD013091AE01011511052105310559F0C4
:101D3000601B710B820B930B6A3171058105910554
:101D400010F08DE741CD8FE63FCD243009F058C02B
:101D50002091CE01222311F088ED36CD00919F0114
:101D60001091A0012091A1013091A201011511054E
:101D70002105310579F06B017C01C01AD10AE20A14
:101D8000F30A970186010A3111052105310510F08A
:101D900086E31ACD00919B0110919C0120919D0139
:101DA00030919E01011511052105310579F06B0176
:101DB0007C01C01AD10AE20AF30A970186010A31AE
:101DC00011052105310510F08DE2FECC0091AB012B
:101DD0001091AC012091AD013091AE0101151105BA
:101DE0002105310559F0601B710B820B930B6A3191
:101DF00071058105910510F08BE5E6CC89E6E4CC10
:101E0000223009F058C02091CE01222311F089ED33
:101E1000DBCC00919F011091A0012091A101309194
:101E2000A201011511052105310579F06B017C0135
:101E3000C01AD10AE20AF30A970186010A31110594
:101E40002105310510F085E3BFCC00919B01109175
:101E50009C0120919D0130919E01011511052105E4
:101E6000310579F06B017C01C01AD10AE20AF30A4C
:101E7000970186010A3111052105310510F08FE324
:101E8000A3CC0091AB011091AC012091AD01309138
:101E9000AE01011511052105310559F0601B710BCB
:101EA000820B930B6A3171058105910510F08DE568
:101EB0008BCC89E789CC213009F0F6CC2091CE017A
:101EC000222311F087ED80CC00919F011091A00199
:101ED0002091A1013091A2010115110521053105C3
:101EE00059F0601B710B820B930B6A3171058105F0
:101EF000910510F084E368CC85E666CC8EEC90E02A
:101F0000089582EC90E0089586EB90E008958CEAC5
:101F100090E00895089580E00895089580E0089580
:101F200008950F931F93CF93DF93D82FC62F8A0165
:101F300080E591E00E9463010E94E909D260DEBD64
:101F4000F8018C2F882339F00DB407FEFDCF919155
:101F50009EBD8150F7CFC00FD12FD11D0DB407FE0C
:101F6000FDCF0E94EB09CE01DF91CF911F910F9120
:101F700008950F931F93CF93DF9300D0CDB7DEB7B3
:101F8000182F062F80E591E00E9463010E94E90965
:101F9000126019830A8362E070E0CE0101960E940C
:101FA000DB050E94EB090F900F90DF91CF911F91FD
:101FB0000F9108958EBD00000DB407FEFDCF8EB5C4
:101FC0000895CF93C82F80E591E00E9463010E949D
:101FD000E9098C2F0E94DA0F80E00E94DA0FC82FE7
:101FE0000E94EB098C2FCF9108958F929F92AF9210
:101FF000BF92CF92DF92EF92FF920F931F93CF93F6
:10200000DF93882E962E5A010E9488046B017C0172
:1020100028E8C20E23E1D21EE11CF11C10E000E012
:10202000D0E0C0E098280E9488046C197D098E09D0
:102030009F0997FF1EC0692D80EF0E94B90F0E9473
:1020400088046C197D098E099F0997FF09C088ECE7
:102050000E94E10F87FFF3CF60E888EC0E94B90F80
:1020600088EF0E94E10FC82FCF70C43081F0CE30CE
:10207000B9F08C2FDF91CF911F910F91FF90EF90CE
:10208000DF90CF90BF90AF909F908F9008950F5F9B
:102090001F4FA114B10439F20A151B0521F6E9CF2F
:1020A000DF5FD33009F0BFCFE4CFAF92BF92CF92C2
:1020B000DF92EF92FF920F931F93CF93DF93EC0188
:1020C000B62EA42E69010E946C067C0186EDE114F7
:1020D000F10409F447C0D701ED91FC91119787ED08
:1020E000309709F43FC013969C9180E0981731F027
:1020F0002081A21629F033968F5FF8CFF0E0E0E060
:10210000D601ED93FC938BED309761F122812695FA
:102110002695203108F02FE081E090E0A0E0B0E0CB
:1021200004C0880F991FAA1FBB1F2A95D2F70197D9
:10213000F801918380836B2D80EE0E94B90F88EDAA
:102140000E94E10FD70114969C91682F697F992313
:1021500029F0CA58DF4F68816260682B88ED0E94C1
:10216000B90F80E0DF91CF911F910F91FF90EF9019
:10217000DF90CF90BF90AF90089588EF0E94E10F5D
:10218000807C8034B1F018F4882301F10895803800
:1021900019F0803CC9F0089588ED0E94E10F81FD9F
:1021A0000DC069EC88ED0E94B90F82E08093D601E2
:1021B000089588ED0E94E10F81FDF3CF6BEC88ED6F
:1021C0000E94B90F83E0F2CF81E0F0CF61ED88ED9E
:1021D0000E94B90F1092D6010895CF92DF92FF921C
:1021E0000F931F93CF93DF93F62E01E0C82FD0E01B
:1021F000CC0FDD1FCA52DD4F6E0188819981DC0151
:10220000ED91FC910280F381E02D2F2D40E060E004
:102210000995182F803E49F561E088EE0E94B90FBC
:1022200066E670E080E090E00E945303F601808152
:102230009181DC01ED91FC910190F081E02D2F2D39
:1022400040E060E00995182F8D3041F58FEF800F49
:10225000833088F061E088EE0E94B90F66E670E096
:1022600080E090E00E94530310C08D3061F48FEF46
:10227000800F833050F464E670E080E090E00E94CC
:1022800053030F5FBACF882389F2812FDF91CF915B
:102290001F910F91FF90DF90CF9008958823A9F3AD
:1022A000D9CF2F923F924F925F926F927F928F92EF
:1022B0009F92AF92BF92CF92DF92EF92FF920F93D5
:1022C0001F93CF93DF937B013A016901F901A0804D
:1022D000B180FB013180F90111821082FB01828102
:1022E00060E181FD60E288EE0E94B90F2A2CA30113
:1022F000F701608180E00E94F50F582EF6E08F1301
:1023000010C088EF0E94E10FF70192819D7F84FF4A
:102310009260928360E191FD60E288EE0E94B90FC5
:10232000E6CF811150C088EC0E94E10F82FF5FC0B0
:1023300080E30E94E10F482E8A151B0411F008F07B
:10234000422CF60180819181E501C81BD90BD7FF92
:1023500002C0D0E0C0E0842C912C8C169D060CF4B9
:10236000E40180E591E00E9463010E94E90988E0B0
:102370000E94DA0FAE0170E060E0C8010E94081F01
:10238000209721F0BE01C8010E94DB050C0F1D1F24
:102390000E94EB0964E088EC0E94B90FF60180818D
:1023A0009181880E991E91828082431420F08A14B4
:1023B0009B0408F49CCF88EF0E94E10FF701928103
:1023C00084FB91F99283852DDF91CF911F910F911D
:1023D000FF90EF90DF90CF90BF90AF909F908F9045
:1023E0007F906F905F904F903F902F90089580EF77
:1023F000582EE9CF2F923F924F925F926F927F9229
:102400008F929F92AF92BF92CF92DF92EF92FF9204
:102410000F931F93CF93DF93CDB7DEB765970FB6BA
:10242000F894DEBF0FBECDBF3C01342E222E402ECD
:10243000ED8AEAA4FBA4188A1F861E861D868E01DB
:10244000035F1F4F9E01215F3F4F40E00E945510E8
:10245000582E811139C139822A824B822D892C83D1
:10246000DE82CD82B886AF82AE014F5F5F4F68E0FB
:1024700080E20E94910F4D855E8560E080E10E94C0
:10248000F50F81113FC1E114F10409F453C00F8528
:102490001889D80112968C91129737FE51C082602C
:1024A00012968C93650144244394C114D10409F419
:1024B0002EC19C868B864D855E856F8578898701C8
:1024C0009E01255F3F4FC3010E945111582EB6E077
:1024D0008B130EC088EF0E94E10FEF85F88985FB12
:1024E000882780F98425928180FB91F99283DDCF42
:1024F0008111EAC0ECA5FDA53097A1F06B857C8524
:102500000190F081E02D0190F081E02DC5018C1942
:102510009D099A8789879E01275F3F4FA7018CA558
:102520009DA509958B859C85C81AD90A881599059A
:1025300008F0BBCF4D855E8537FEE0C080EADFC086
:10254000816012968C93129711966C908FEF860D86
:10255000803408F0D9C02D843E840E9488049B01F9
:10256000AC0128573C4E4F4F5F4F298B3A8B4B8B1A
:102570005C8BD80112968C9160E880FF60E488EE55
:102580000E94B90F512C712C8114910409F48BC055
:1025900053018614970408F45401AD8AA7016A2DEB
:1025A00080E10E94910F6A2D88E30E94B90FF80123
:1025B0006081606280EF0E94B90F88EC0E94E10F99
:1025C00087FFFBCF60E888EC0E94B90F88EF0E947C
:1025D000E10F8F70582E412CD12CC12C552021F1A8
:1025E0000E94880429893A894B895C89621B730B94
:1025F000840B950B97FF18C036E0531609F43FC0C3
:102600004EE05416B1F054E0551209C08FEFC81ACD
:10261000D80A2114310489F02C143D0471F460E0CF
:1026200088E30E94B90F41C08A189B08EA0CFB1C82
:10263000ABCF439493E0491691F360E088E30E94A6
:10264000B90FD7016C9180E10E94B90F6D8988E3C1
:102650000E94B90FF8016081606280EF0E94B90F9B
:1026600088EC0E94E10F87FFFBCF60E888EC0E94B6
:10267000B90F88EF0E94E10F8F70582EAFCF88EF0F
:102680000E94E10F85FB882780F9A1E08A27F801E5
:10269000928180FB90F9928360E890FF60E488EE7D
:1026A0000E94B90FCACF5110BACF88EF0E94E10F34
:1026B000D80112969C91129785FB90F912969C93E3
:1026C0004D855E855520D1F0852D65960FB6F89421
:1026D000DEBF0FBECDBFDF91CF911F910F91FF9055
:1026E000EF90DF90CF90BF90AF909F908F907F90B2
:1026F0006F905F904F903F902F90089580E860E03A
:102700000E94F50F582EE0CF8AED582EDDCF4D8573
:102710005E85552009F412CFD7CF8F929F92AF924A
:10272000BF92CF92DF92EF920F93CF931F921F929F
:102730001F921F92912C812CB12CA12CD12CC12C39
:10274000E12C062F25E040E060E00E94FA11C82F3E
:102750006CE271E080E090E00E9453030F900F90D4
:102760000F900F908C2FCF910F91EF90DF90CF9023
:10277000BF90AF909F908F9008958F929F92AF924D
:10278000BF92CF92DF92EF920F931F921F923F93CF
:102790002F934A015A01D12CC12CEE24E39400E07E
:1027A00026E040E80E94FA110F900F900F900F90D2
:1027B0000F91EF90DF90CF90BF90AF909F908F9050
:1027C00008952F923F924F925F926F927F928F92D5
:1027D0009F92AF92BF92CF92DF92EF92FF920F93B0
:1027E0001F93CF93DF93CDB7DEB7C658D1090FB68D
:1027F000F894DEBF0FBECDBFDC0116963C913111BF
:1028000066C2E22EC42ED62E3C01FC012480358007
:10281000108ED101ED91FC910190F081E02D60E0EE
:10282000C10109952C010097D9F486EDCA57DF4FF5
:102830000FB6F894DEBF0FBECDBFDF91CF911F91D1
:102840000F91FF90EF90DF90CF90BF90AF909F904F
:102850008F907F906F905F904F903F902F90089552
:10286000FC010081118187ED01151105F9F2930139
:10287000295F3F4FC158DF4F39832883CF57D0405E
:1028800031832083E4829E0126593F4F48E050E087
:1028900060E0D30114968D919C910E94BD13FE01BE
:1028A000E458FF4FEF96FFAFEEAFEF97ED968FAF87
:1028B000ED97811110C2AB96FFACAB97D2010D938F
:1028C0001C93D101ED91FC910280F381E02D2C2D20
:1028D00040E06D2DC1010995F3018683882309F439
:1028E000F8C1E2969FADE2979087682F8481958129
:1028F0000E948D13ED968FAFED97D101ED91FC9174
:10290000882389F0D20114961C920480F581E02D71
:10291000D30116966C91C1010995F3011682ED96CB
:102920008FADED9783CFD30116966C91D20114969B
:102930001C920190F081E02DC1010995009709F4E6
:1029400074CFFC01E482FF20A1F04F2D433108F049
:1029500042E150E09E0126593F4FD30116966C91FB
:10296000169714968D919C910E94BD13ED968FAF92
:10297000ED97ED96FFACED97F110C3C0EC96BFADAF
:10298000EC97CC57DF4FB883C458D04010E02E01ED
:10299000E1E44E0E511C93012E5F3F4FCB57DF4FAA
:1029A00039832883C558D040120130E1230E311CF1
:1029B000CC57DF4F8881C458D040181709F499C00C
:1029C000E7E1F1E0D2011196FC93EE93CB57DF4F94
:1029D00028813981C558D04013963C932E93129785
:1029E00014961C92149719961C9219971A961C9279
:1029F0001A971D961C921D971F961C921E921E9749
:102A000090961C92909791961C92919792961C92F8
:102A1000929798961C92989716963C922E9215979C
:102A200018963C922E9217971C963C922E921B97CA
:102A3000D30114960D90BC91A02DCF57DF4FB983D1
:102A4000A883C158D040F301F681CD57DF4FF883FA
:102A5000C358D0401F921F9221E030E02C0F3D1F41
:102A60003F932F9309E0802E912C89E0A82EB12C62
:102A7000D12CC12C92E0E92E012F26E040E8CD5761
:102A8000DF4F6881C358D040CF57DF4F888199818D
:102A9000C158D0400E94FA110F900F900F900F90E4
:102AA000811120C0AB80BC805F924F9281E090E0AA
:102AB0008C0F9D1F9F938F93B0E48B2E912C26E05B
:102AC00040E8CD57DF4F6881C358D040CF57DF4F24
:102AD00088819981C158D0400E94FA110F900F90BF
:102AE0000F900F90D30152968C91823011F01F5F9E
:102AF0005FCFF3011289123069F081EDED968FAF4F
:102B0000ED97D301ED91FC910480F581E02DC30197
:102B1000099505CF848195810681C158DF4FE881F1
:102B2000F981CF57D040EF2B09F4C7C0602F0E9426
:102B30006C06FC01892B09F4C3C00283C158DF4F26
:102B400028813981CF57D040318320831383ED967C
:102B5000FFAEED9768EE73E080E090E00E945303D3
:102B60001F921F921F921F92912C812CB12CA12C8D
:102B7000D12CC12CE12CD3011F960C911F9729E079
:102B800040E016966C91169714968D919C910E9438
:102B9000FA11ED968FAFED970F900F900F900F9069
:102BA0008111AFCF68EE73E080E090E00E945303A4
:102BB0001F921F921F921F92F301018D2BE041E2A1
:102BC0006681848195810E94FA11ED968FAFED9711
:102BD0000F900F900F900F90811193CF1F921F9223
:102BE0001F921F9200E02AE041E2D30116966C91F9
:102BF000169714968D919C910E94FA11ED968FAFC5
:102C0000ED97FE01EF5BFF4F8DE191E091838083B3
:102C1000FF93EF93CE0101969F938F9360E4862EEE
:102C2000912C70E8A72EB12CE2E2EE2E26E041E8CE
:102C3000F3016681848195810E94FA1180E2ED960C
:102C40008FAFED970FB6F894DEBF0FBECDBFED96F8
:102C50008FADED978823B9F190E095958795ED9626
:102C60008FAFED971F921F92EF963FADEF973F9377
:102C7000EE968FADEE978F9388248394912CAA249F
:102C8000A394B12CD12CC12C52E0E52E00E029E018
:102C900041E2D30116966C91169714968D919C91F2
:102CA0000E94FA1169E170E080E090E00E94530315
:102CB0000F900F900F900F90CACFA8EDFA2E47CF2C
:102CC000F6EDFF2E44CF91E0F301978BAFCD89ED68
:102CD000ADCD84EDABCDF2011183008312CF8F9285
:102CE0009F92AF92BF92CF92DF92EF920F93CF93CA
:102CF000DF931F92CDB7DEB7FC019285473409F40C
:102D000043C0433551F0493379F491FB882780F96A
:102D1000292F2D7F80FF226006C0892F8170292FE7
:102D20002E7F80FF2160228782858917A9F1611596
:102D3000710591F1FB0189831F921F92CE010196CB
:102D40009F938F9388248394912CAA24A394B12CCD
:102D5000D12CC12C22E0E22E00E029E041E2668184
:102D6000848195810E94FA110F900F900F900F901F
:102D70000F90DF91CF910F91EF90DF90CF90BF90A8
:102D8000AF909F908F90089592FB882780F9292F0C
:102D90002B7F80FF2460C7CF80E0EACF4F925F9205
:102DA0006F927F928F929F92AF92BF92CF92DF925B
:102DB000EF92FF920F931F93CF93DF9300D000D039
:102DC00000D0CDB7DEB77C018DB69EB6DC0157963C
:102DD0008C9181111EC0512C852D0FB6F8949EBE8A
:102DE0000FBE8DBE26960FB6F894DEBF0FBECDBFC8
:102DF000DF91CF911F910F91FF90EF90DF90CF90D7
:102E0000BF90AF909F908F907F906F905F904F900A
:102E100008950E948804F70143885488658876885D
:102E2000641975098609970997FDD5CF6DB67EB6E9
:102E30004285838590E08134910508F05BC09E83D4
:102E40008D838D819E812DB73EB7281B390B0FB620
:102E5000F8943EBF0FBE2DBF8DB79EB701966C0193
:102E6000D7011496AD90BC90159716966C911C8264
:102E70001B821A8219828E010F5F1F4F9E012D5FE8
:102E80003F4FC5010E945510582E811121C0498124
:102E90005A816B817C8186019E012B5F3F4FC5016A
:102EA0000E945111582E811113C02D813E81233073
:102EB000310570F0F70185859685009749F0DC01B2
:102EC000ED91FC910190F081E02D40E0B701099572
:102ED0000FB6F8947EBE0FBE6DBE0E948804F70147
:102EE000208D620F711D811D911D638B748B858BED
:102EF000968B72CF80E490E0A2CF1F920F920FB614
:102F00000F9211248F939F938091E1009091E100A3
:102F1000937F9093E10083FF0FC01092E90091E04E
:102F20009093EB001092EC0092E39093ED001092DE
:102F3000D50198E09093F00082FF22C093E0909337
:102F4000E9009091F200992319F09AE39093E80038
:102F50009091CA01992341F09091CA0191509093A8
:102F6000CA01911101C05D9A9091D401992341F059
:102F70009091D40191509093D401911101C0289A5D
:102F800084FF18C08091E2008E7E81608093E20011
:102F90008091E1008F7E8093E1008091CB018E7E55
:102FA00080618093CB019F918F910F900FBE0F9006
:102FB0001F90189580FFF7CF8091E2008E7E806190
:102FC0008093E2008091E1008E7E8093E100809109
:102FD000CB018E7E8160E5CF1F920F920FB60F92CC
:102FE0001124CF92DF92EF92FF920F931F932F93B2
:102FF0003F934F935F936F937F938F939F93AF9381
:10300000BF93EF93FF93CF93DF93CDB7DEB76C976A
:10301000DEBFCDBF1092E9008091E80083FF25C09C
:1030200068E0CE0145960E945A0282EF8093E80044
:103030008D8987FF39C09091E80090FFFCCF982FD1
:10304000907609F034C19E894F89588D2F89F88C6C
:10305000911131C0803861F58091CC018093F100ED
:103060001092F1008EEF8093E8006C960FB6F89402
:10307000DEBF0FBECDBFDF91CF91FF91EF91BF912A
:10308000AF919F918F917F916F915F914F913F9100
:103090002F911F910F91FF90EF90DF90CF900F90A5
:1030A0000FBE0F901F9018959EEF9093E800C7CF2A
:1030B0001092F100D5CF913059F48111D3CF413026
:1030C000510581F68091CC018D7F8093CC01CACFD0
:1030D000933049F48111C6CF4130510519F68091E2
:1030E000CC018260F2CF953041F48091E80080FFFE
:1030F000FCCF20682093E300B5CF963009F0A9C03B
:103100000B8D1C8D22E01092E9001092C8011092E4
:10311000C701F2122EC01092C6011092C5010E9482
:103120007B021F8299E09983FA8291E09E8390EA64
:1031300098879AEF99872091C7013091C801275F3E
:103140003F4F3C832B838D831092E9001092C8017E
:103150001092C7011093C6010093C50149E050E0E9
:10316000BE016F5F7F4F80E00E9423020E947B02BE
:1031700079CF1093C6010093C5010E946702DC015C
:1031800012960D911C910115110509F451C1D80138
:10319000ED91FC910480F581E02DBE016B5E7F4FC7
:1031A000C8010995009709F03EC1F8010085118515
:1031B000EACFF3E0FF120EC08F89882309F440C0E4
:1031C000823061F440E860E187EB91E00E94681A88
:1031D000811148CF81E28093EB0047CF813029F401
:1031E00040E86BE08BEA91E0F1CF833099F70E94E1
:1031F0006702DC011296ED90FC908E010F5F1F4F6D
:103200006801E114F10479F0D701ED91FC91068099
:10321000F781E02DB801C7010995080F111DF701CD
:10322000E084F184EECFD8011C92F60101900020D9
:10323000E9F73197BF016C197D0940E0C601C6CF9F
:1032400065E971E0FB01449150E080E80E942302AF
:1032500009CF973009F4BECF983021F481E08093F4
:10326000F10000CF993009F0FDCE837009F0B2CFA4
:10327000EDE0F1E081E031E096E32191222371F06D
:103280008093E9003093EB00DF0111972C9120939C
:10329000EC009093ED008F5F873079F78EE7809395
:1032A000EA001092EA008F898093D501DBCE8B8DE6
:1032B0009C8D1092E9001092C8011092C701909362
:1032C000C6018093C501898D811192C08E899D8927
:1032D000913A49F4813209F07DCF47E050E064E053
:1032E00071E080E0B3CF913209F074CF833269F49A
:1032F0008F89988DB0E0A0E0809300019093010148
:10330000A0930201B0930301ADCE803269F48091A5
:10331000E80082FFFCCF67E084E091E00E945A025F
:103320008BEF8093E8009ECE823209F09BCE8F898E
:1033300080930B01EEEFFFE7859194918B3F9C4DBD
:1033400051F1E0E0F8E08091040190910501A09135
:103350000601B0910701803B9440A105B105F1F44D
:1033600080910B0180FD1AC0EE3F8AE0F80789F5D5
:1033700087E797E791838083809160008093C901FC
:1033800088E19BE00FB6F894A895809360000FBE8B
:103390009093600067CEEEEFFAE0D5CF8081918107
:1033A0008737974709F05ECEA895809160008861C5
:1033B000809360008091C90180936000EE3F2AE015
:1033C000F20789F08091FE0A9091FF0A9183808331
:1033D00049CE808191818737980751F29093FF0AF7
:1033E0008093FE0AC5CF1092FF0A1092FE0A3ACED1
:1033F0000E946702DC0112960D911C9101151105C6
:1034000009F4E8CED801ED91FC910190F081E02D16
:10341000BE016B5E7F4FC8010995811123CEF80173
:1034200000851185EBCF181619060CF41BCED2CEF1
:10343000F1E0FF12BECE69E971E004CF1F920F9256
:103440000FB60F9211242F933F938F939F93AF93B7
:10345000BF938091B1019091B201A091B301B0915D
:10346000B4013091B00123E0230F2D3758F50196B8
:10347000A11DB11D2093B0018093B1019093B201C1
:10348000A093B301B093B4018091B5019091B601BE
:10349000A091B701B091B8010196A11DB11D809313
:1034A000B5019093B601A093B701B093B801BF9155
:1034B000AF919F918F913F912F910F900FBE0F90E1
:1034C0001F90189526E8230F0296A11DB11DD2CF9B
:1034D000EF92FF920F931F93CF93DF93F82E192F44
:1034E000E62E042F81E0860F880F0E94F50183E00D
:1034F0000E94F501CF2DD12FEC0EFD2EF11CCE1523
:10350000DF05B9F007FF13C0FE0184910E94F501A9
:10351000182F80E00E94F501812321968111EFCFC1
:10352000DF91CF911F910F91FF90EF9008958881C7
:10353000EDCF81E0F5CFCF931092DA011092D9014F
:1035400088EE93E0A0E0B0E08093DB019093DC0193
:10355000A093DD01B093DE0183E291E09093D80166
:103560008093D7018FEF9FEF9093E4018093E30165
:10357000109251021092500281E491E090934F0218
:1035800080934E0280914602811113C01092410235
:103590001092400281E492E09093430280934202B1
:1035A0008FE290E0909345028093440281E0809303
:1035B00046028091380281112AC0C1E0C0932B02DB
:1035C000C0932C0281E392E090932E0280932D020F
:1035D0001092300210922F0285E391E0909328021E
:1035E0008093270210923302109232021092350219
:1035F00010923402C0933602C093370281EC80935C
:1036000031020E9467020E946601C0933802E09175
:103610003202F0913302309709F099C080E492E0D1
:10362000909333028093320280913402909135025C
:103630002091440230914502820F931F90933502EE
:103640008093340281E791E090938102809380021D
:103650001092880281E08093890210928A0282E8A7
:1036600092E090938702809386021092820288E013
:10367000809383028CE38093840210928502E0E8B9
:10368000F2E02BEC32E081E042E852E015868687DA
:1036900017865487438735962E173F07B9F7109240
:1036A000F60291E190935A0220E832E030936B02E7
:1036B00020936A022DE431E0309367022093660282
:1036C0002BE631E030936902209368021092790270
:1036D00010927A0210927B0210927C0210927D026C
:1036E00010927F02809378021092770210926D02FE
:1036F00088E080936E028CE380936F0210927002D8
:103700001092710284E08093720210927302109200
:10371000740210927502E6EDF2E090E080E02191F3
:103720003191232BE9F4880F991FFC01EA52FD4FD8
:1037300086E692E091838083109265028BE791E0A8
:1037400090935C0280935B02CF910895FC0180818D
:1037500091810097D9F780E492E09183808364CFD0
:10376000019680319105D9F6E7CFCF93DF93CDB79E
:10377000DEB766970FB6F894DEBF0FBECDBF789464
:1037800084B5826084BD84B5816084BD85B5826066
:1037900085BD85B5816085BD80916E008160809317
:1037A0006E00109281008091810082608093810080
:1037B0008091810081608093810080918000816090
:1037C000809380008091910082608093910080912D
:1037D000910081608093910080919000816080933E
:1037E00090008091C10084608093C1008091C100ED
:1037F00082608093C1008091C10081608093C1008C
:103800008091C30081608093C3008091C00082607A
:103810008093C0008091C20081608093C20080913B
:103820007A00846080937A0080917A00826080932D
:103830007A0080917A00816080937A0080917A008A
:10384000806880937A001092D5011092CC0110927A
:10385000CB018091D70081608093D70080EA80936C
:10386000D80089B5806189BD89B5826089BD09B4F8
:1038700000FEFDCF61E070E080E090E00E94530325
:103880008091D8008F7C80618093D8008091E00087
:10389000807F8093E0008091E1008E7E8093E10044
:1038A0008DE08093E200559A209A1092CF011092F9
:1038B000CE01269A0E94EB091FB7F8948091CD01A2
:1038C00081115AC044E152E0FA01949123E332E0BD
:1038D000F9018491E92FF0E0EE0FFF1FEB50FE4F4E
:1038E000A591B4919C91892309F037C0E9EDF1E0ED
:1038F0009491F9012491FA018491882309F42DC04F
:103900009923E9F091509F30D0F4E92FF0E0E5578A
:10391000F34E0C94021FFE1C021D9A1CF61CFA1C8E
:103920009F1C9F1C9F1C051D0B1D0F1D131D191D8A
:103930009F1C1D1D909180009F7790938000E82F21
:10394000F0E0EE0FFF1FE951FE4FA591B4918FB744
:10395000F8949C91292B2C938FBF81E10E94AC019C
:103960008CB580618CBD8CB580648CBD8FE00E946D
:10397000AC0180E10E94AC018091CD018F5F80930A
:10398000CD011FBF209A289A259868E188E80E94F7
:10399000B90F60E288E70E94B90F60E088E70E94F3
:1039A000B90F10E000E088E60E94E10F0F5F1F4FA3
:1039B00080FF49C061EC88ED0E94B90F60E680EDA0
:1039C0000E94B90F64E088EE0E94B90F88EE0E9451
:1039D000E10F82FFFBCF0E94BD1060E288EC0E94E5
:1039E000B90F61E080E80E94B90F31C0909180006A
:1039F0009F7DA3CF90918000977F9FCF94B59F77B5
:103A000094BD9DCF94B59F7DFBCF909190009F7703
:103A10009093900094CF909190009F7DF9CF9091DA
:103A20009000977FF5CF9091C0009F779093C00052
:103A300086CF9091C0009F7DF9CF9091C200977F73
:103A40009093C2007CCF0F3F100709F0ACCF8BE5FD
:103A500092E0909374028093730220E5522E08E066
:103A600083B1182F107285FD0CC088EC0E94E10F05
:103A700085FF03C00E94BD1010E2612F88EC0E94F8
:103A8000B90F8091D601813041F058F0823009F4AD
:103A900063C0833079F010E024C083E180935A0240
:103AA000FACF80915A02807F8031A9F391E19093FF
:103AB0005A02F1CF11E080915A02807F803189F45F
:103AC0000E94880468537F4F8F4F9F4F6093D001AF
:103AD0007093D1018093D2019093D301A0E2A0937F
:103AE0005A0296EDE92E92E0F92E6701F6018191D6
:103AF00091916F01009739F0DC01ED91FC91068006
:103B0000F781E02D0995B6EFCB16B2E0DB0671F731
:103B100080915A02803409F456C000F58032E9F1F0
:103B2000803309F44AC0813109F05CC01092F6027A
:103B3000F701819191917F01009739F0DC01ED91BE
:103B4000FC910480F581E02D0995CE14DF0481F706
:103B500082E180935A0246C010E0ADCF813509F46E
:103B600049C0803809F459C08035E1F588EC0E94DD
:103B7000E10F86FF37C081E580935A020E948804D6
:103B80006C5E7F4F8F4F9F4F6093D0017093D10138
:103B90008093D2019093D30125C00E948804C090E5
:103BA000D001D090D101E090D201F090D3016C19F6
:103BB0007D098E099F0997FD15C061E088EE0E947E
:103BC000B90F80E4C6CF88EE0E94E10F80FD0AC0E5
:103BD00088ED0E94E10F682F686088ED0E94B90FA0
:103BE00050925A02A0E0B0E0AB2B09F439CF0E940A
:103BF000000033CF0E9488048090D0019090D101C2
:103C0000A090D201B090D301681979098A099B0963
:103C100097FDE8CF80E880935A021B8A0C8BBCE3A7
:103C2000BD8BC0908602D0908702E3E1F0E0EC0FFC
:103C3000FD1FF0938702E093860210938A029E0193
:103C40002F5F3F4F42E150E060E080E892E00E9449
:103C5000BD13482ED0928702C092860281114DC0BA
:103C600069847A84AB84BC843D802E8086EDC82E26
:103C700082E0D82E1E8AD6018D919D916D0100970C
:103C8000F1F5BE89BF5FBE8BB031A9F7F701819115
:103C900091917F01009709F077C04394F0E14F12B2
:103CA000F5CF8091860290918702892B09F45AC042
:103CB00010938A0220E040E060E080E892E00E94F9
:103CC0001706F82E882309F44DC0682F80E892E08B
:103CD0000E946C06009709F445C0FC0114836F2D07
:103CE00080E892E00E948D13482E882309F488C052
:103CF0006F2D80E892E00E94F505842D30C0DC0134
:103D0000ED91FC910084F185E02D09958111B9CFE9
:103D1000F601929182914F01DC01ED91FC910088B6
:103D2000F189E02D622D0995882309F4AACFF401C9
:103D300080819181DC01ED91FC910484F585E02D79
:103D4000A501B3010995882389F0612F8E890E940E
:103D5000ED10813D09F495CF882309F451C0823DCF
:103D600009F440CFF0EAF0935A023CCFF40180818D
:103D70009181DC01ED91FC910684F785E02D632DA6
:103D800009958111E2CF7DCFDC01ED91FC9100849A
:103D9000F185E02D0995811180CFF70192918291F3
:103DA0006F01DC01ED91FC910088F189E02D622D1D
:103DB0000995811109C0612F842D0E94ED10982F63
:103DC000977F913D49F669CFF60180819181DC01B1
:103DD000ED91FC910484F585E02DA501B3010995D1
:103DE00081115BCFF60180819181DC01ED91FC9125
:103DF0000684F785E02D632D09958823E1F24DCFE8
:103E000080E9A7CEEE0FFF1F0590F491E02D0994F5
:103E1000DC0101C06D9341505040E0F70895F894E3
:023E2000FFCFD2
:103E2200FFFFFFFF00E100000000000000C18081F1
:103E320000000000000000350800000000780900C2
:103E4200000000AC027204CD02C2021403D202F0DE
:103E520002000000008306FC06C106A60600000060
:103E6200001B0847073208310800000000E1138EEA
:103E72000FCE09CE16CB098D0F8B0FC609C109B81B
:103E820009ED09B5097909FEFF0000AB0900000040
:103E9200006C061706F50500000000CF046F168AB5
:0E3EA2000FF7099C0A870F840F810F7E0F0017
:00000001FF
